{
    "_format": "hh-sol-artifact-1",
    "contractName": "Web3RSVP",
    "sourceName": "contracts/Web3RSVP.sol",
    "abi": [
        {
            "anonymous": false,
            "inputs": [
                {
                    "indexed": false,
                    "internalType": "bytes32",
                    "name": "eventID",
                    "type": "bytes32"
                },
                {
                    "indexed": false,
                    "internalType": "address",
                    "name": "attendeeAddress",
                    "type": "address"
                }
            ],
            "name": "ConfirmedAttendee",
            "type": "event"
        },
        {
            "anonymous": false,
            "inputs": [
                {
                    "indexed": false,
                    "internalType": "bytes32",
                    "name": "eventID",
                    "type": "bytes32"
                }
            ],
            "name": "DepositsPaidOut",
            "type": "event"
        },
        {
            "anonymous": false,
            "inputs": [
                {
                    "indexed": false,
                    "internalType": "bytes32",
                    "name": "eventID",
                    "type": "bytes32"
                },
                {
                    "indexed": false,
                    "internalType": "address",
                    "name": "creatorAddress",
                    "type": "address"
                },
                {
                    "indexed": false,
                    "internalType": "uint256",
                    "name": "eventTimestamp",
                    "type": "uint256"
                },
                {
                    "indexed": false,
                    "internalType": "uint256",
                    "name": "maxCapacity",
                    "type": "uint256"
                },
                {
                    "indexed": false,
                    "internalType": "uint256",
                    "name": "deposit",
                    "type": "uint256"
                },
                {
                    "indexed": false,
                    "internalType": "string",
                    "name": "eventDataCID",
                    "type": "string"
                }
            ],
            "name": "NewEventCreated",
            "type": "event"
        },
        {
            "anonymous": false,
            "inputs": [
                {
                    "indexed": false,
                    "internalType": "bytes32",
                    "name": "eventID",
                    "type": "bytes32"
                },
                {
                    "indexed": false,
                    "internalType": "address",
                    "name": "attendeeAddress",
                    "type": "address"
                }
            ],
            "name": "NewRSVP",
            "type": "event"
        },
        {
            "inputs": [
                {
                    "internalType": "bytes32",
                    "name": "eventId",
                    "type": "bytes32"
                }
            ],
            "name": "confirmAllAttendees",
            "outputs": [],
            "stateMutability": "nonpayable",
            "type": "function"
        },
        {
            "inputs": [
                {
                    "internalType": "bytes32",
                    "name": "eventId",
                    "type": "bytes32"
                },
                {
                    "internalType": "address",
                    "name": "attendee",
                    "type": "address"
                }
            ],
            "name": "confirmAttendee",
            "outputs": [],
            "stateMutability": "nonpayable",
            "type": "function"
        },
        {
            "inputs": [
                {
                    "internalType": "uint256",
                    "name": "eventTimestamp",
                    "type": "uint256"
                },
                {
                    "internalType": "uint256",
                    "name": "deposit",
                    "type": "uint256"
                },
                {
                    "internalType": "uint256",
                    "name": "maxCapacity",
                    "type": "uint256"
                },
                {
                    "internalType": "string",
                    "name": "eventDataCID",
                    "type": "string"
                }
            ],
            "name": "createNewEvent",
            "outputs": [],
            "stateMutability": "nonpayable",
            "type": "function"
        },
        {
            "inputs": [
                {
                    "internalType": "bytes32",
                    "name": "eventId",
                    "type": "bytes32"
                }
            ],
            "name": "createNewRSVP",
            "outputs": [],
            "stateMutability": "payable",
            "type": "function"
        },
        {
            "inputs": [
                {
                    "internalType": "bytes32",
                    "name": "",
                    "type": "bytes32"
                }
            ],
            "name": "idToEvent",
            "outputs": [
                {
                    "internalType": "bytes32",
                    "name": "eventId",
                    "type": "bytes32"
                },
                {
                    "internalType": "string",
                    "name": "eventDataCID",
                    "type": "string"
                },
                {
                    "internalType": "address",
                    "name": "eventOwner",
                    "type": "address"
                },
                {
                    "internalType": "uint256",
                    "name": "eventTimestamp",
                    "type": "uint256"
                },
                {
                    "internalType": "uint256",
                    "name": "deposit",
                    "type": "uint256"
                },
                {
                    "internalType": "uint256",
                    "name": "maxCapacity",
                    "type": "uint256"
                },
                {
                    "internalType": "bool",
                    "name": "paidOut",
                    "type": "bool"
                }
            ],
            "stateMutability": "view",
            "type": "function"
        },
        {
            "inputs": [
                {
                    "internalType": "bytes32",
                    "name": "eventId",
                    "type": "bytes32"
                }
            ],
            "name": "withdrawUnclaimedDeposits",
            "outputs": [],
            "stateMutability": "nonpayable",
            "type": "function"
        }
    ],
    "bytecode": "0x608060405234801561001057600080fd5b50612196806100206000396000f3fe6080604052600436106100545760003560e01c806292098c1461005957806317f0165a146100825780636dcdf2cd1461009e57806379747571146100c7578063909ef021146100f0578063acdbe01214610133575b600080fd5b34801561006557600080fd5b50610080600480360381019061007b919061156f565b61015c565b005b61009c6004803603810190610097919061162d565b610378565b005b3480156100aa57600080fd5b506100c560048036038101906100c091906116b8565b6105e5565b005b3480156100d357600080fd5b506100ee60048036038101906100e9919061162d565b610abe565b005b3480156100fc57600080fd5b506101176004803603810190610112919061162d565b610f75565b60405161012a97969594939291906117d9565b60405180910390f35b34801561013f57600080fd5b5061015a6004803603810190610155919061162d565b61106c565b005b600033308787876040516020016101779594939291906118b8565b60405160208183030381529060405280519060200120905060608060405180610120016040528084815260200186868080601f016020809104026020016040519081016040528093929190818152602001838380828437600081840152601f19601f8201169050808301925050505050505081526020013373ffffffffffffffffffffffffffffffffffffffff1681526020018981526020018881526020018781526020018381526020018281526020016000151581525060008085815260200190815260200160002060008201518160000155602082015181600101908051906020019061026792919061139d565b5060408201518160020160006101000a81548173ffffffffffffffffffffffffffffffffffffffff021916908373ffffffffffffffffffffffffffffffffffffffff160217905550606082015181600301556080820151816004015560a0820151816005015560c08201518160060190805190602001906102e9929190611423565b5060e0820151816007019080519060200190610306929190611423565b506101008201518160080160006101000a81548160ff0219169083151502179055509050507f2553138c3f9c9008f266dbdbe9fc64f5b71e098d06ef714a190a65a8b9fc6bf383338a898b8a8a6040516103669796959493929190611953565b60405180910390a15050505050505050565b60008060008381526020019081526020016000209050806004015434146103d4576040517f08c379a00000000000000000000000000000000000000000000000000000000081526004016103cb90611a09565b60405180910390fd5b806003015442111561041b576040517f08c379a000000000000000000000000000000000000000000000000000000000815260040161041290611a75565b60405180910390fd5b8060050154816006018054905010610468576040517f08c379a000000000000000000000000000000000000000000000000000000000815260040161045f90611ae1565b60405180910390fd5b60005b81600601805490508160ff161015610542573373ffffffffffffffffffffffffffffffffffffffff16826006018260ff16815481106104ad576104ac611b01565b5b9060005260206000200160009054906101000a900473ffffffffffffffffffffffffffffffffffffffff1673ffffffffffffffffffffffffffffffffffffffff16141561052f576040517f08c379a000000000000000000000000000000000000000000000000000000000815260040161052690611b7c565b60405180910390fd5b808061053a90611bd8565b91505061046b565b5080600601339080600181540180825580915050600190039060005260206000200160009091909190916101000a81548173ffffffffffffffffffffffffffffffffffffffff021916908373ffffffffffffffffffffffffffffffffffffffff1602179055507fb79f4240bbdd272d98e02a5db7f0cf156e5fc000961c517670a26eeeec63ed9082336040516105d9929190611c02565b60405180910390a15050565b600080600084815260200190815260200160002090508060020160009054906101000a900473ffffffffffffffffffffffffffffffffffffffff1673ffffffffffffffffffffffffffffffffffffffff163373ffffffffffffffffffffffffffffffffffffffff161461068d576040517f08c379a000000000000000000000000000000000000000000000000000000000815260040161068490611c77565b60405180910390fd5b600080600090505b82600601805490508160ff161015610778578373ffffffffffffffffffffffffffffffffffffffff16836006018260ff16815481106106d7576106d6611b01565b5b9060005260206000200160009054906101000a900473ffffffffffffffffffffffffffffffffffffffff1673ffffffffffffffffffffffffffffffffffffffff16141561076557826006018160ff168154811061073757610736611b01565b5b9060005260206000200160009054906101000a900473ffffffffffffffffffffffffffffffffffffffff1691505b808061077090611bd8565b915050610695565b508273ffffffffffffffffffffffffffffffffffffffff168173ffffffffffffffffffffffffffffffffffffffff16146107e7576040517f08c379a00000000000000000000000000000000000000000000000000000000081526004016107de90611ce3565b60405180910390fd5b60005b82600701805490508160ff1610156108c1578373ffffffffffffffffffffffffffffffffffffffff16836007018260ff168154811061082c5761082b611b01565b5b9060005260206000200160009054906101000a900473ffffffffffffffffffffffffffffffffffffffff1673ffffffffffffffffffffffffffffffffffffffff1614156108ae576040517f08c379a00000000000000000000000000000000000000000000000000000000081526004016108a590611d4f565b60405180910390fd5b80806108b990611bd8565b9150506107ea565b50600015158260080160009054906101000a900460ff1615151461091a576040517f08c379a000000000000000000000000000000000000000000000000000000000815260040161091190611dbb565b60405180910390fd5b81600701839080600181540180825580915050600190039060005260206000200160009091909190916101000a81548173ffffffffffffffffffffffffffffffffffffffff021916908373ffffffffffffffffffffffffffffffffffffffff16021790555060008373ffffffffffffffffffffffffffffffffffffffff1683600401546040516109a990611e0c565b60006040518083038185875af1925050503d80600081146109e6576040519150601f19603f3d011682016040523d82523d6000602084013e6109eb565b606091505b5050905080610a3e5782600701805480610a0857610a07611e21565b5b6001900381819060005260206000200160006101000a81549073ffffffffffffffffffffffffffffffffffffffff021916905590555b80610a7e576040517f08c379a0000000000000000000000000000000000000000000000000000000008152600401610a7590611e9c565b60405180910390fd5b7ff8d1583a733d83bdd3ef5464129d0a95a36d62b382d31c6d0467a61f4264381b8585604051610aaf929190611c02565b60405180910390a15050505050565b60008060008381526020019081526020016000206040518061012001604052908160008201548152602001600182018054610af890611eeb565b80601f0160208091040260200160405190810160405280929190818152602001828054610b2490611eeb565b8015610b715780601f10610b4657610100808354040283529160200191610b71565b820191906000526020600020905b815481529060010190602001808311610b5457829003601f168201915b505050505081526020016002820160009054906101000a900473ffffffffffffffffffffffffffffffffffffffff1673ffffffffffffffffffffffffffffffffffffffff1673ffffffffffffffffffffffffffffffffffffffff16815260200160038201548152602001600482015481526020016005820154815260200160068201805480602002602001604051908101604052809291908181526020018280548015610c7357602002820191906000526020600020905b8160009054906101000a900473ffffffffffffffffffffffffffffffffffffffff1673ffffffffffffffffffffffffffffffffffffffff1681526020019060010190808311610c29575b5050505050815260200160078201805480602002602001604051908101604052809291908181526020018280548015610d0157602002820191906000526020600020905b8160009054906101000a900473ffffffffffffffffffffffffffffffffffffffff1673ffffffffffffffffffffffffffffffffffffffff1681526020019060010190808311610cb7575b505050505081526020016008820160009054906101000a900460ff161515151581525050905080610100015115610d6d576040517f08c379a0000000000000000000000000000000000000000000000000000000008152600401610d6490611f69565b60405180910390fd5b62093a808160600151610d809190611f89565b4211610dc1576040517f08c379a0000000000000000000000000000000000000000000000000000000008152600401610db89061202b565b60405180910390fd5b806040015173ffffffffffffffffffffffffffffffffffffffff163373ffffffffffffffffffffffffffffffffffffffff1614610e33576040517f08c379a0000000000000000000000000000000000000000000000000000000008152600401610e2a90612097565b60405180910390fd5b60008160e00151518260c0015151610e4b91906120b7565b90506000826080015182610e5f91906120eb565b905060018361010001901515908115158152505060003373ffffffffffffffffffffffffffffffffffffffff1682604051610e9990611e0c565b60006040518083038185875af1925050503d8060008114610ed6576040519150601f19603f3d011682016040523d82523d6000602084013e610edb565b606091505b5050905080610ef7576000846101000190151590811515815250505b80610f37576040517f08c379a0000000000000000000000000000000000000000000000000000000008152600401610f2e90611e9c565b60405180910390fd5b7f393073ea1365f611c3d2f240c992960d2b99dc81715555d3fc40fc55ba80af9c85604051610f669190612145565b60405180910390a15050505050565b6000602052806000526040600020600091509050806000015490806001018054610f9e90611eeb565b80601f0160208091040260200160405190810160405280929190818152602001828054610fca90611eeb565b80156110175780601f10610fec57610100808354040283529160200191611017565b820191906000526020600020905b815481529060010190602001808311610ffa57829003601f168201915b5050505050908060020160009054906101000a900473ffffffffffffffffffffffffffffffffffffffff16908060030154908060040154908060050154908060080160009054906101000a900460ff16905087565b600080600083815260200190815260200160002060405180610120016040529081600082015481526020016001820180546110a690611eeb565b80601f01602080910402602001604051908101604052809291908181526020018280546110d290611eeb565b801561111f5780601f106110f45761010080835404028352916020019161111f565b820191906000526020600020905b81548152906001019060200180831161110257829003601f168201915b505050505081526020016002820160009054906101000a900473ffffffffffffffffffffffffffffffffffffffff1673ffffffffffffffffffffffffffffffffffffffff1673ffffffffffffffffffffffffffffffffffffffff1681526020016003820154815260200160048201548152602001600582015481526020016006820180548060200260200160405190810160405280929190818152602001828054801561122157602002820191906000526020600020905b8160009054906101000a900473ffffffffffffffffffffffffffffffffffffffff1673ffffffffffffffffffffffffffffffffffffffff16815260200190600101908083116111d7575b50505050508152602001600782018054806020026020016040519081016040528092919081815260200182805480156112af57602002820191906000526020600020905b8160009054906101000a900473ffffffffffffffffffffffffffffffffffffffff1673ffffffffffffffffffffffffffffffffffffffff1681526020019060010190808311611265575b505050505081526020016008820160009054906101000a900460ff1615151515815250509050806040015173ffffffffffffffffffffffffffffffffffffffff163373ffffffffffffffffffffffffffffffffffffffff1614611347576040517f08c379a000000000000000000000000000000000000000000000000000000000815260040161133e90611c77565b60405180910390fd5b60005b8160c00151518160ff16101561139857611385838360c001518360ff168151811061137857611377611b01565b5b60200260200101516105e5565b808061139090611bd8565b91505061134a565b505050565b8280546113a990611eeb565b90600052602060002090601f0160209004810192826113cb5760008555611412565b82601f106113e457805160ff1916838001178555611412565b82800160010185558215611412579182015b828111156114115782518255916020019190600101906113f6565b5b50905061141f91906114ad565b5090565b82805482825590600052602060002090810192821561149c579160200282015b8281111561149b5782518260006101000a81548173ffffffffffffffffffffffffffffffffffffffff021916908373ffffffffffffffffffffffffffffffffffffffff16021790555091602001919060010190611443565b5b5090506114a991906114ad565b5090565b5b808211156114c65760008160009055506001016114ae565b5090565b600080fd5b600080fd5b6000819050919050565b6114e7816114d4565b81146114f257600080fd5b50565b600081359050611504816114de565b92915050565b600080fd5b600080fd5b600080fd5b60008083601f84011261152f5761152e61150a565b5b8235905067ffffffffffffffff81111561154c5761154b61150f565b5b60208301915083600182028301111561156857611567611514565b5b9250929050565b60008060008060006080868803121561158b5761158a6114ca565b5b6000611599888289016114f5565b95505060206115aa888289016114f5565b94505060406115bb888289016114f5565b935050606086013567ffffffffffffffff8111156115dc576115db6114cf565b5b6115e888828901611519565b92509250509295509295909350565b6000819050919050565b61160a816115f7565b811461161557600080fd5b50565b60008135905061162781611601565b92915050565b600060208284031215611643576116426114ca565b5b600061165184828501611618565b91505092915050565b600073ffffffffffffffffffffffffffffffffffffffff82169050919050565b60006116858261165a565b9050919050565b6116958161167a565b81146116a057600080fd5b50565b6000813590506116b28161168c565b92915050565b600080604083850312156116cf576116ce6114ca565b5b60006116dd85828601611618565b92505060206116ee858286016116a3565b9150509250929050565b611701816115f7565b82525050565b600081519050919050565b600082825260208201905092915050565b60005b83811015611741578082015181840152602081019050611726565b83811115611750576000848401525b50505050565b6000601f19601f8301169050919050565b600061177282611707565b61177c8185611712565b935061178c818560208601611723565b61179581611756565b840191505092915050565b6117a98161167a565b82525050565b6117b8816114d4565b82525050565b60008115159050919050565b6117d3816117be565b82525050565b600060e0820190506117ee600083018a6116f8565b81810360208301526118008189611767565b905061180f60408301886117a0565b61181c60608301876117af565b61182960808301866117af565b61183660a08301856117af565b61184360c08301846117ca565b98975050505050505050565b60008160601b9050919050565b60006118678261184f565b9050919050565b60006118798261185c565b9050919050565b61189161188c8261167a565b61186e565b82525050565b6000819050919050565b6118b26118ad826114d4565b611897565b82525050565b60006118c48288611880565b6014820191506118d48287611880565b6014820191506118e482866118a1565b6020820191506118f482856118a1565b60208201915061190482846118a1565b6020820191508190509695505050505050565b82818337600083830152505050565b60006119328385611712565b935061193f838584611917565b61194883611756565b840190509392505050565b600060c082019050611968600083018a6116f8565b61197560208301896117a0565b61198260408301886117af565b61198f60608301876117af565b61199c60808301866117af565b81810360a08301526119af818486611926565b905098975050505050505050565b7f4e4f5420454e4f55474800000000000000000000000000000000000000000000600082015250565b60006119f3600a83611712565b91506119fe826119bd565b602082019050919050565b60006020820190508181036000830152611a22816119e6565b9050919050565b7f414c52454144592048415050454e454400000000000000000000000000000000600082015250565b6000611a5f601083611712565b9150611a6a82611a29565b602082019050919050565b60006020820190508181036000830152611a8e81611a52565b9050919050565b7f54686973206576656e7420686173207265616368656420636170616369747900600082015250565b6000611acb601f83611712565b9150611ad682611a95565b602082019050919050565b60006020820190508181036000830152611afa81611abe565b9050919050565b7f4e487b7100000000000000000000000000000000000000000000000000000000600052603260045260246000fd5b7f414c524541445920434f4e4649524d4544000000000000000000000000000000600082015250565b6000611b66601183611712565b9150611b7182611b30565b602082019050919050565b60006020820190508181036000830152611b9581611b59565b9050919050565b7f4e487b7100000000000000000000000000000000000000000000000000000000600052601160045260246000fd5b600060ff82169050919050565b6000611be382611bcb565b915060ff821415611bf757611bf6611b9c565b5b600182019050919050565b6000604082019050611c1760008301856116f8565b611c2460208301846117a0565b9392505050565b7f4e4f5420415554484f52495a4544000000000000000000000000000000000000600082015250565b6000611c61600e83611712565b9150611c6c82611c2b565b602082019050919050565b60006020820190508181036000830152611c9081611c54565b9050919050565b7f4e4f205253565020544f20434f4e4649524d0000000000000000000000000000600082015250565b6000611ccd601283611712565b9150611cd882611c97565b602082019050919050565b60006020820190508181036000830152611cfc81611cc0565b9050919050565b7f414c524541445920434c41494d45440000000000000000000000000000000000600082015250565b6000611d39600f83611712565b9150611d4482611d03565b602082019050919050565b60006020820190508181036000830152611d6881611d2c565b9050919050565b7f414c52454144592050414944204f555400000000000000000000000000000000600082015250565b6000611da5601083611712565b9150611db082611d6f565b602082019050919050565b60006020820190508181036000830152611dd481611d98565b9050919050565b600081905092915050565b50565b6000611df6600083611ddb565b9150611e0182611de6565b600082019050919050565b6000611e1782611de9565b9150819050919050565b7f4e487b7100000000000000000000000000000000000000000000000000000000600052603160045260246000fd5b7f4661696c656420746f2073656e64204574686572000000000000000000000000600082015250565b6000611e86601483611712565b9150611e9182611e50565b602082019050919050565b60006020820190508181036000830152611eb581611e79565b9050919050565b7f4e487b7100000000000000000000000000000000000000000000000000000000600052602260045260246000fd5b60006002820490506001821680611f0357607f821691505b60208210811415611f1757611f16611ebc565b5b50919050565b7f414c524541445920504149440000000000000000000000000000000000000000600082015250565b6000611f53600c83611712565b9150611f5e82611f1d565b602082019050919050565b60006020820190508181036000830152611f8281611f46565b9050919050565b6000611f94826114d4565b9150611f9f836114d4565b9250827fffffffffffffffffffffffffffffffffffffffffffffffffffffffffffffffff03821115611fd457611fd3611b9c565b5b828201905092915050565b7f544f4f204541524c590000000000000000000000000000000000000000000000600082015250565b6000612015600983611712565b915061202082611fdf565b602082019050919050565b6000602082019050818103600083015261204481612008565b9050919050565b7f4d555354204245204556454e54204f574e455200000000000000000000000000600082015250565b6000612081601383611712565b915061208c8261204b565b602082019050919050565b600060208201905081810360008301526120b081612074565b9050919050565b60006120c2826114d4565b91506120cd836114d4565b9250828210156120e0576120df611b9c565b5b828203905092915050565b60006120f6826114d4565b9150612101836114d4565b9250817fffffffffffffffffffffffffffffffffffffffffffffffffffffffffffffffff048311821515161561213a57612139611b9c565b5b828202905092915050565b600060208201905061215a60008301846116f8565b9291505056fea264697066735822122034b3a23e3626228857301a972c74062e7344ce29f0fe57dd69c6514df091082e64736f6c63430008090033",
    "linkReferences": {},
    "deployedLinkReferences": {}
}